:020000040800F2
:100000008006002081010008230400082104000864
:1000100000000000000000000000000000000000E0
:10002000000000000000000000000000270400089D
:10003000000000000000000025040008290400085A
:100040009301000893010008930100089301000840
:100050009301000893010008930100089301000830
:100060009301000893010008930100089301000820
:100070009301000893010008930100089301000810
:100080009301000893010008930100089301000800
:1000900093010008930100089301000893010008F0
:1000A00093010008930100089301000893010008E0
:1000B000930100083504000893010008930100082B
:1000C00000F002F800F04CF812A030C808382418EC
:1000D0002D18AC4201D100F043F80FCCA246AB463C
:1000E0000CA730CF2D1B083F3F197C427F1E544484
:1000F0002D090426F441641EAC4201D300F030F80F
:100100000126334200D0FB1A3343984754465D46DC
:10011000DFE7000094070000B4070000103A02D3A4
:1001200078C878C1FAD8520701D330C830C101D598
:1001300004680C6070470000704700000023002432
:1001400000250026103A01D378C1FBD8520700D30E
:1001500030C100D50B6070471FB51FBD10B510BD75
:1001600000F02DF81146FFF7F7FF00F025FA00F038
:1001700045F803B4FFF7F2FF03BC00F04BF80000B2
:100180000748804707480047FEE7FEE7FEE7FEE72F
:10019000FEE7FEE704480549054A064B70470000A4
:1001A00031040008C1000008800000208006002003
:1001B000800200208002002070477047704775461B
:1001C00000F024F8AE46050069465346C008C0005A
:1001D000854618B020B5FFF7DDFF60BCB6460026A7
:1001E0000027C0C5C0C5C0C5C0C5C0C5C0C5C0C545
:1001F000C0C5403D490849008D46704710B50446CA
:10020000C046C0462046FFF7B4FF10BD0048704707
:100210001000002001491820ABBEFEE726000200B6
:1002200070470000B0B5044600F0E4F80546601CD5
:1002300002D076480078041900F0DCF8401BA04298
:10024000FAD3B0BDF0B589B001900A68002A00D198
:10025000B5E00D465B48019B834201D0052000E0DC
:1002600004201721C9065918890A9B0559180091BD
:10027000042900D3009000231C461F4607950AE07E
:10028000114331607F1C2A681046F8401B1DA41CD6
:10029000002800D193E001260396BE403240F1D001
:1002A0000292069303200146A140C9436A6815469D
:1002B00005406B1E012B059213D8049101998868A3
:1002C000049B1840079BDB68A34003438B60D00668
:1002D000C00FB8404B68B3430E46049903437360A4
:1002E00006E0032D019E03D10546069B029A20E0FD
:1002F000F0680840079B9B68A3400343F360022D0E
:10030000069B029A15D11C20184004910F218140B0
:10031000FB089B00F3181D6A8D43079E31698140DD
:10032000294319620499069B7068019E0325059074
:100330000540A54030680840284330600598800398
:10034000800F079D9ED021490868039D28430860BF
:100350000868284008900C2018400F218140032392
:100360003D469D43089B1A4EAB598B4300998140F3
:100370001943A951079D144EB1686868C3020BD593
:100380001143B160F16883020BD49143F16071684D
:1003900083030BD491430AE09143B160F168830277
:1003A000F3D51143F16071688303F3D51143069BC4
:1003B00071603168C00300D562E7914361E709B01D
:1003C000F0BDC04600100048000401401810024073
:1003D0000800014042690B4693430A401104C918C2
:1003E00081617047002A02D018228150704728226C
:1003F00081507047064800687047C046034800783F
:1004000003490A68101808607047C04600000020C1
:1004100078000020014800687047C04608000020AE
:10042000FEE7FEE77047704780B5FFF7E7FF80BD46
:100430007047000070B55E4D68689B4C00281ED068
:100440002878014662390026102961D87944097953
:1004500049008F44085D5D5D5D185D5D5D5D5D5DBE
:100460005D245D5D310020896870C0B2322830D0D3
:10047000312831D030284AD18448802127E0208992
:100480002870012644E020896870C0B2322826D046
:10049000312827D030283AD1012041020AE02089B2
:1004A0006870C0B2322820D0312822D030282ED116
:1004B0000120010275480AE020896870C0B2322824
:1004C0001BD031281ED0302821D170484021002275
:1004D0001BE06E48802112E06C48802114E001206E
:1004E000410204E00122510205E0012001026748B7
:1004F00005E001221102654807E064484021FFF74A
:1005000069FF04E0614840210122FFF76BFF287872
:100510006E60C0B2623810280ED801218140254893
:10052000014209D070BD2068000608D4206800068A
:1005300005D42068000602D420680006F3D54520C3
:10054000A0812068000608D42068000605D4206831
:10055000000602D420680006F3D57220A08121682D
:10056000090608D42168090605D42168090602D4C1
:1005700021680906F3D5A0812168090608D42168FD
:10058000090605D42168090602D421680906F3D5B5
:100590006F21A1812168090608D42168090605D4C4
:1005A0002168090602D421680906F3D5A08170BD2F
:1005B00070000020212001008AB0012290042D4902
:1005C0000B6803430B600B6803400593059BD20443
:1005D0000B6813430B600B6813400593059A886002
:1005E00025A005A90A4618C818C238C838C2274825
:1005F000FFF728FE26A069460A4618C818C238C860
:1006000038C2284D2C46243C2046FFF71BFEFF2015
:100610000002296881432960112080022968014372
:100620002960052040052168014321601E4D2846B0
:100630001C3801682D220A430260FFF7EBFEE1211E
:10064000490200F035F8294610390860174C01E0DE
:100650007220A8812046FFF7E5FD28680006F7D440
:1006600028680006F4D428680006F1D4286800063B
:10067000F3D5EDE714100240C003000001000000B4
:10068000000000000000000000000000000800481A
:10069000000C00000200000000000000000000004C
:1006A00000000000240400481C480040881300009B
:1006B00043088B421AD3002203098B4279D3030AE1
:1006C0008B425ED3030B8B4242D3030C8B4227D366
:1006D0000902FF2212BA030C8B4202D31212090242
:1006E00003D0030B8B4233D31AE0D3E0411A80418D
:1006F000401C704703460B4371D443088B42F5D32B
:10070000002203098B4254D3030A8B4239D3030BD3
:100710008B421DD3030C8B4202D394466EE0090A30
:10072000C30B8B4201D3CB03C01A5241830B8B42C4
:1007300001D38B03C01A5241430B8B4201D34B03AD
:10074000C01A5241030B8B4201D30B03C01A524112
:10075000C30A8B4201D3CB02C01A5241830A8B4297
:1007600001D38B02C01A5241430A8B4201D34B0280
:10077000C01A5241030A8B4201D30B02C01A5241E4
:10078000CDD2C3098B4201D3CB01C01A5241830998
:100790008B4201D38B01C01A524143098B4201D3D2
:1007A0004B01C01A524103098B4201D30B01C01AFD
:1007B0005241C3088B4201D3CB00C01A5241830877
:1007C0008B4201D38B00C01A524143088B4201D3A4
:1007D0004B00C01A5241411A524110007047CA0FD3
:1007E00000D04942031000D34042534000229C46AF
:1007F00003098B422DD3030A8B4212D38901FC22B9
:1008000012BA030A8B420CD3890192118B4208D38E
:10081000890192118B4204D3890137D0921100E0F3
:100820008909C3098B4201D3CB01C01A5241830904
:100830008B4201D38B01C01A524143098B4201D331
:100840004B01C01A524103098B4201D30B01C01A5C
:100850005241C3088B4201D3CB00C01A52418308D6
:100860008B4201D38B00C01A5241D9D243088B422C
:1008700001D34B00C01A5241411A00D201465241E5
:10088000104663465B1000D34042704763465B10DE
:1008900000D3404201B50021004201D0C9430846BF
:1008A000C046C04602BD0000C80800080000002085
:1008B000100000001C010008D808000810000020EB
:1008C000700600003C010008010000000400000068
:0808D00000127A000000000094
:04000005080000C12E
:00000001FF
